:100000000C949F000C943A200C94A0160C943A2067
:100010000C943A200C943A200C94D8130C943A2067
:100020000C943A200C943A200C943A200C943A20E8
:100030000C943A200C943A200C943A200C943A20D8
:100040000C94131B0C943A200C94AA120C940C1CC4
:100050000C943F1B0C943A200C943A200C943A20B8
:100060000C943A200C943A20D6072609E807260972
:1000700026090C090209F608EA08DE08D208C608B3
:10008000260926099D082609260926092609260982
:1000900026092609DE0526096106260926092609FC
:1000A0003A05130904082609F205E9062609260976
:1000B0002609260926098C05B107E904260926091F
:1000C00026092609260926092609260926092609B8
:1000D00026092609DE0526096106260926092609BC
:1000E0003A05130904082609F205E9062609260936
:1000F0002609260926098C05B107E90401000372C7
:1001000080037203AC00408203AC03BC8003BC03D9
:10011000CD0040BC03CD03F28003F203F60040CDD6
:1001200003F6040680040604080040D1040804090C
:10013000800409040D0040D3040D040E8000112436
:100140001FBECFEFD8E0DEBFCDBFECEFF0E041E067
:1001500017C0B591A59135912591059107FD0CC06A
:1001600095918591EF01F92FE82F05900D92A21737
:10017000B307D9F7FE0104C01D92A217B307E1F738
:10018000ED33F40731F70E94FC0F0C94FF1FF89435
:02019000FFCF9F
:100192004C45442063616C6962726174696F6E2EB2
:1001A2002030202D3E204E6F206368616E67652EE1
:1001B20020526564204C454420737461727420613E
:0A01C200742052504D3A200D0A003F
:1001CC0030202D3E203530302072706D2C203120A7
:1001DC002D3E20313030302072706D2C2032202D8D
:1001EC003E20323030302072706D202E2E2E2E3A62
:0201FC002000E1
:1001FE00546163686F2063616C6962726174696FC8
:10020E006E2E2053656C6563742077686963682071
:10021E0076616C7565202830202D203130290D0A2D
:01022E0000CF
:10022F002020455343202D3E20427265616B732081
:10023F0074686520636F6D6D616E642E2E2E2E2E89
:10024F002E2E2E2E2E2E2E2E2E2E2E2E2E0D0A0032
:10025F000D0A536574206E657720546163686F20B3
:10026F0063616C6962726174696F6E2076616C751F
:10027F0065202830202D203136333833293A20009D
:10028F00202048202D3E2048656C70202E2E2E2ECB
:10029F002E2E2E2E2E2E2E2E2E2E2E2E2E2E2E2E6F
:0F02AF002E2E2E2E2E2E2E2E2E2E2E2E0D0A0001
:1002BE00202054202D3E2053657420546163682005
:1002CE0076616C75652E2E2E2E2E2E2E2E2E2E2E09
:0F02DE002E2E2E2E2E2E2E2E2E2E2E2E0D0A00D2
:1002ED00202047202D3E2053657420477265656E92
:1002FD00204C45442076616C75652E2E2E2E2E2EAB
:0F030D002E2E2E2E2E2E2E2E2E2E2E2E0D0A00A2
:10031C00202052202D3E2053657420526564204CC1
:10032C0045442076616C75652E2E2E2E2E2E2E2E8B
:0F033C002E2E2E2E2E2E2E2E2E2E2E2E0D0A0073
:10034B00202041202D3E205265616420412F442006
:10035B0076616C75652E2E2E2E2E2E2E2E2E2E2E7B
:0F036B002E2E2E2E2E2E2E2E2E2E2E2E0D0A0044
:10037A00202049202D3E20476574204D6973632053
:10038A00496E666F726D6174696F6E2E2E2E2E2EF7
:0F039A002E2E2E2E2E2E2E2E2E2E2E2E0D0A0015
:1003A90020204B202D3E20456D756C617465204BD6
:1003B90065792050726573732E2E2E2E2E2E2E2EB9
:0F03C9002E2E2E2E2E2E2E2E2E2E2E2E0D0A00E6
:1003D800202053202D3E2053746F702F5374617268
:1003E800742074686520546163686F2046756E6375
:0F03F80074696F6E2E2E2E2E2E2E2E2E0D0A00B5
:10040700202043202D3E2053657420546163686F7C
:100417002043616C6962726174696F6E2076616CEA
:0F0427007565732E2E2E2E2E2E2E2E2E0D0A00C4
:1004360020204C202D3E20536574204C45442043FB
:10044600616C6962726174696F6E2076616C756544
:0F045600732E2E2E2E2E2E2E2E2E2E2E0D0A0013
:1004650020202B202D3E20496E6372656173652027
:10047500546163686F2076616C75652E2E2E2E2E65
:0F0485002E2E2E2E2E2E2E2E2E2E2E2E0D0A0029
:1004940020202D202D3E2044656372656173652004
:1004A400546163686F2076616C75652E2E2E2E2E36
:0F04B4002E2E2E2E2E2E2E2E2E2E2E2E0D0A00FA
:1004C300202039202D3E204C6F672048656C70201A
:1004D300283120416C6C206C6F67206F6E2C2030AC
:0F04E300206C6F67206F6666292E2E2E0D0A0083
:1004F200413A20537720312073686F7274207072F2
:10050200657373202020423A20537720322073688B
:0C0512006F72742070726573730D0A0024
:10051E00433A2053772031206C6F6E6720707265DE
:10052E00737320202020443A2053772032206C6FA2
:0B053E006E672070726573730D0A0079
:10054900206F6B0D0A53657420526564204C454435
:1005590020696E6372656D656E742076616C756570
:030569003A200035
:10056C0053657420546163686F2050574D20766139
:10057C006C7565202830202D203136333833293ADC
:02058C0020004D
:10058E00206F6B0D0A53657420477265656E204CA3
:0F059E004544206D696E2076616C75653A2000CA
:1005AD00206F6B0D0A53657420477265656E204C84
:0F05BD004544206D61782076616C75653A2000A9
:1005CC0053657420477265656E204C4544207661F6
:0E05DC006C75652028302D323535293A200007
:1005EA0053657420526564204C45442076616C75CD
:0C05FA00652028302D323535293A2000CC
:1006060050574D20447574792076616C7565206667
:0B0616006F7220746163686F3A20006F
:10062100526564204C45442052504D2073746172D0
:090631007420284545293A2000F7
:10063A00477265656E204C454420412F44206D6900
:09064A006E20284545293A2000E4
:10065300546163686F6D657465722066756E63744B
:08066300696F6E20697320002D
:10066B00453A20426F7468206B6579732070726510
:07067B00737365640D0A00B2
:1006820030202D3E20416C6C206C6F6767696E676D
:07069200206F66660D0A00EF
:10069900202A2A2A2020546163686F202056657217
:0706A90073696F6E3A200037
:1006B000546163686F2050574D206E6577207661D6
:0606C0006C75653A200094
:1006C600477265656E204C4544206E6577207661DD
:0606D6006C75653A20007E
:1006DC0032202D20372041444453206C6F67207406
:0606EC007970650D0A00A3
:1006F20039202D3E20546869732068656C7020741F
:060702006578740D0A0089
:100708002057726F6E672073656C656374696F6ECE
:0507180020210D0A0084
:10071D00526564204C4544206E65772076616C757A
:04072D00653A200009
:10073100456D756C617465204B65792050726573E8
:04074100730D0A002A
:100745000D0A546163686F202056657273696F6E78
:030755003A200047
:1007580053656C656374204B65792C20412D4520C9
:030768003A200034
:10076B00546163686F2063616C69622076616C3AD7
:03077B000D0A0064
:10077E0034202D3E204C6F6720436F6D6D656E7477
:03078E000D0A0051
:100791004E657720746163686F2076616C75653A88
:0207A100200036
:1007A3004E657720746163686F2076616C75653A76
:0207B300200024
:1007B50031202D3E20416C6C206C6F67206F6E0DD3
:0207C5000A0028
:1007C70033202D3E204C6F67205265706F72740D79
:0207D7000A0016
:1007D9000D0A4F6C642076616C75652069733A2047
:0107E900000F
:1007EA0032202D3E204C6F672054726163650D0ADA
:0107FA0000FE
:1007FB0035202D3E204C6F67204572726F720D0AAB
:01080B0000EC
:10080C0036202D3E204C6F6720546163686F0D0AB3
:01081C0000DB
:10081D00412F442076616C75652069733A20200064
:10082D00416C6C206C6F67206F666620210D0A008D
:0F083D004E65772076616C75652069733A2000EF
:0F084C00526573657420726561736F6E3A200098
:0E085B002020477265656E204C45443A20000F
:0D086900204C6F67206C6576656C3A2000AE
:0D087600206F6B212052656164790D0A002E
:0C088300206C6F67206F6E20210D0A00B2
:0C088F002020526564204C45443A2000B3
:0C089B004C6F672048656C703A0D0A0035
:0C08A7004C6F6720436F6D6D656E740030
:0B08B3005E427265616B0D0A3E200082
:0B08BE004C6F67205265706F72740071
:0A08C9004C6F6720546163686F00F4
:0A08D3004C6F67204572726F7200CF
:0A08DD004C6F6720547261636500E0
:0A08E70020202A2A2A0D0A0D0A001B
:0908F1002C20537465703A2000BC
:0808FA0028646563292C20002D
:080902000D0A52504D3A20008D
:08090A002C204D61783A200019
:080912004C6F6720416C6C0082
:06091A004552524F52004D
:060920002868657829003B
:0609260030332E313000D9
:04092C004F464600EC
:030930000D0A00AD
:030933004F4B0027
:030936000D0A00A7
:030939003E20005D
:03093C004F4E001B
:03093F003A20005B
:10094200CF93DF9300D000D00F92CDB7DEB7CE01A8
:1009520005960E94F318892B09F09AC48D818F772E
:100962008D838D810E94B91D8D818B3189F419820D
:1009720089818093FF038091FF038093000480911B
:1009820000048093FE0383EB98E00E94D71781C492
:1009920080910004882319F48D81898303C080919A
:1009A200000489838981882F90E0092E000CAA0B0C
:1009B200BB0B4BE250E029E430E0841B950B281777
:1009C200390708F442C48C5C9F4FFC010C9434201C
:1009D2008D810E945C1E882369F18091FE03882F1D
:1009E20090E08C549C4FFC0110821092FF03809186
:1009F200FF0380930004809100048093FE0386E34A
:100A020099E00E94D71784EB93E00E9482189B839F
:100A12008A838A819B810E94E51B80EB96E00E947B
:100A2200D7170E94BC1F0E947F1D86E399E00E9497
:100A3200D71718C480910004882341F48CE695E00E
:100A42000E94D7178981809300040CC48D8163E0D2
:100A52000E94E614982F81E08927882309F402C4B2
:100A620086E399E00E94D7178AE199E00E94D7179E
:100A7200F9C38D810E945C1E882371F18091FE036F
:100A8200882F90E08C549C4FFC0110821092FF033F
:100A92008091FF0380930004809100048093FE0301
:100AA20086E399E00E94D71784EB93E00E948218B4
:100AB2009B838A838A810E94A51E86EC96E00E940F
:100AC200D7170E94C81F882F90E00E947F1D86E3DF
:100AD20099E00E94D717C8C380910004882341F48B
:100AE2008CEC95E00E94D717898180930004BCC3E7
:100AF2008D8163E00E94E614982F81E08927882384
:100B020009F4B2C386E399E00E94D7178AE199E01B
:100B12000E94D717A9C38D810E945C1E882371F1A0
:100B22008091FE03882F90E08C549C4FFC01108230
:100B32001092FF038091FF038093000480910004D0
:100B42008093FE0386E399E00E94D71784EB93E03B
:100B52000E9482189B838A838A810E94BC1E8DE137
:100B620097E00E94D7170E94D31F882F90E00E941F
:100B72007F1D86E399E00E94D71778C38091000415
:100B8200882341F48AEE95E00E94D71789818093E9
:100B920000046CC38D8163E00E94E614982F81E00B
:100BA2008927882309F462C386E399E00E94D71754
:100BB2008AE199E00E94D71759C30E94F11D882F3C
:100BC20090E09B838A838DE198E00E94D7178A8107
:100BD2009B8199270E947F1D86E399E00E94D71787
:100BE2004AC38091FE038823E9F481E397E00E94DF
:100BF200D71782EF94E00E94D7178EE195E00E940A
:100C0200D7178BE696E00E94D71788E597E00E94F7
:100C1200D7178091FE038F5F8093FE0389818093B3
:100C2200000429C38D81882F90E00E941D208D83AE
:100C32008D81813690F18D81863678F58D81813670
:100C420029F481E090E09B838A831FC08D818236E4
:100C520029F484E090E09B838A8317C08D818336D8
:100C620029F482E090E09B838A830FC08D818436D1
:100C720029F488E090E09B838A8307C08D818536C2
:100C820021F485E090E09B838A838A810E94921FEF
:100C920083E399E00E94D71704C088E097E00E949E
:100CA200D7171092FF038091FF0380930004809175
:100CB20000048093FE0386E399E00E94D717DBC20B
:100CC2008D810E945C1E882309F45FC08091FE031F
:100CD200882F90E08C549C4FFC0110821092FE03EE
:100CE2008091FF038823F1F484EB93E00E94821841
:100CF2009093E5038093E4038091FF038F5F8093D9
:100D0200FF0389ED97E00E94D7178091E403909149
:100D1200E5030E94421E0E947F1D8FE592E00E9421
:100D2200D717A6C286E399E00E94D71784EB93E017
:100D32000E9482189B838A838A819B812091E4038B
:100D42003091E503BC01822F0E94C9198DE398E01E
:100D52000E94D7178091E4039091E5030E94421EFE
:100D62000E947F1D86E399E00E94D7171092FF032D
:100D72008091FF038093000480910004882F90E00B
:100D82009093E5038093E40373C280910004882367
:100D920061F48EEF91E00E94D7178CEC91E00E94F3
:100DA200D71789818093000463C28D8163E00E941A
:100DB200E614982F81E08927882309F459C286E333
:100DC20099E00E94D7178AE199E00E94D71750C292
:100DD2008D810E945C1E882309F4A3C08091FE03CA
:100DE200882F90E08C549C4FFC0110821092FE03DD
:100DF2008091FF03882309F584EB93E00E94821817
:100E02009093E5038093E4038091FF038F5F8093C7
:100E1200FF038091E4039091E503892B49F08091CF
:100E2200E4039091E503BC0186E190E00E94561C28
:100E320089E495E00E94D7171DC28091FF0381309B
:100E420009F584EB93E00E9482189093E503809366
:100E5200E4038091FF038F5F8093FF038091E4039B
:100E62009091E503892B49F08091E4039091E50389
:100E7200BC0188E190E00E94561C8EE895E00E9439
:100E8200D717F8C18091FF03823009F584EB93E014
:100E92000E9482189093E5038093E4038091FF03FC
:100EA2008F5F8093FF038091E4039091E503892B88
:100EB20049F08091E4039091E503682F8AE190E084
:100EC2000E94941B8DEA95E00E94D717D3C184EB50
:100ED20093E00E9482189093E5038093E40380914B
:100EE200E4039091E503892B49F08091E40390910A
:100EF200E503682F8AE190E00E94941B86E798E060
:100F02000E94D7171092FF038091FF038093000481
:100F120080910004882F90E09093E5038093E4038E
:100F2200A9C180910004882341F482E991E00E94E2
:100F3200D7178981809300049DC18D8163E00E944F
:100F4200E614982F81E08927882309F493C186E368
:100F520099E00E94D7178AE199E00E94D7178AC1C7
:100F62008091FC03882F90E021E0892B09F420E096
:100F720081E08227882F90E081708093FC0383E5D3
:100F820096E00E94D7178091FC03882329F08CE217
:100F920099E00E94D71704C08CE399E00E94D7170A
:100FA20086E399E00E94D71766C181E997E00E9423
:100FB200D7170E94BC1F01960E94E51B0E94BC1F0E
:100FC2000E947F1D86E399E00E94D71754C183EAED
:100FD20097E00E94D7170E94BC1F01979B838A83C8
:100FE2008A819B81992314F41B821A828A819B81B4
:100FF2000E94E51B0E94BC1F0E947F1D86E399E0B0
:101002000E94D71738C182E099E00E94D7170E9448
:10101200BA1ACC01A0E0B0E0BC01CD010E94BB181D
:1010220086E399E00E94D71786E096E00E94D717E0
:101032000E94BC1F0E947F1D8BE598E00E94D7177B
:101042000E94C81F882F90E00E947F1D8FE898E0C1
:101052000E94D7170E94D31F882F90E00E947F1D05
:1010620086E399E00E94D7178CE498E00E94D71794
:101072008091FD03882F90E00E942C1A86E399E06C
:101082000E94D7178BE697E00E94D7171C8224C0D4
:101092008C81882F90E00E94FC198FE399E00E94D6
:1010A200D7178C810E94421E0E947F1D8C81882F3F
:1010B20090E0019623E030E0B9010E94151F892BD0
:1010C20029F486E399E00E94D71703C089E00E94C1
:1010D200B91D8C818F5F8C838C818B30C8F286E343
:1010E20099E00E94D71781E296E00E94D71786E125
:1010F20090E00E94BD1B0E94FC1981EF98E00E94C3
:10110200D71788E190E00E94BD1B0E94FC198AE378
:1011120096E00E94D71786E190E00E94BD1B0E94D4
:101122002C1A8AE099E00E94D71788E190E00E9489
:10113200BD1B0E942C1A9FC08BE998E00E94D71712
:101142008CED96E00E94D71782E896E00E94D717AE
:1011520085EB97E00E94D7178AEE97E00E94D71797
:1011620087EC97E00E94D7178EE797E00E94D71787
:101172008BEF97E00E94D7178CE098E00E94D71778
:1011820082EF96E00E94D71776C089EC98E00E9421
:10119200D7178091F60380618093F6030E94EA1EBE
:1011A2006AC083ED98E00E94D7178091F6038860A9
:1011B2008093F6030E94EA1E5EC087EA98E00E94CE
:1011C200D7178091F60384608093F6030E94EA1E8B
:1011D20052C08EEB98E00E94D7178091F60382608E
:1011E2008093F6030E94EA1E46C08DED98E00E94AD
:1011F200D7178091F60381608093F6030E94EA1E5E
:101202003AC082E199E00E94D7178FEF8093F603EC
:101212000E94EA1E30C08DE298E00E94D717109219
:10122200F60329C086E399E00E94D71789E996E080
:101232000E94D71786E299E00E94D71787EE98E0BE
:101242000E94D7170E94E61616C086E399E00E9414
:10125200D7170E94E61683E090E00E945C1A0E9473
:101262000C1E09C0000007C0000005C0000003C03A
:10127200000001C0000080910004882351F486E33D
:1012820099E00E94D71789E399E00E94D71701C01D
:1012920000000F900F900F900F900F90DF91CF9161
:0212A2000895AD
:1012A400AEE0B0E0E8E5F9E00C94D81D4C016B0128
:1012B4001A8219828FEF9FEF9C838B831E821D827B
:1012C40058874F833A872987A12CB12CD6016D907A
:1012D4007C90F301EA0DFB1D808181110FC0D601C2
:1012E400ED93FC938081853209F0D3C13F01BFEFB8
:1012F4006B1A7B0AF6017182608219C0853279F318
:10130400B401082E000C990B0E9437154FEFA41A54
:10131400B40ADCCF8C32ACF08D32F9F489819A8135
:1013240081609A8389833196D601ED93FC93D6012B
:10133400ED91FC9180818B3269F789819A81846077
:10134400F0CF803221F489819A818860EACF833298
:1013540051F489819A818061E4CF803321F48981B9
:101364009A818260DECFB701C6010E948C1A9E83E7
:101374008D8397FF0BC029813A81B1E02B273A83F3
:1013840029839195819591099E838D8389819A8181
:1013940080FF03C08D7F9A838983D601ED91FC91F0
:1013A400119780818E3249F43196ED93FC93B70105
:1013B400C6010E948C1A9C838B83C6010E94401D27
:1013C400582ED601ED91FC918081082E000C990BCA
:1013D4000E941D20893609F443C084F4833609F43D
:1013E40002C134F4853209F427C18136E1F030C1F9
:1013F4008436B1F188360CF4D9C02AC1803709F497
:101404009AC03CF48E3609F4BCC08F3609F461C02E
:101414001FC1853709F440C0883709F476C0833783
:1014240009F016C1F3C0652D70E0A701CE010B963B
:101434000E940000892B09F426C1D601ED91FC918C
:101444001197CF0101968D939C932081AE01455F46
:101454005F4FBE016F5F7F4FC4010E94000010C147
:10146400652D70E0970141E050E0CE010B960E949B
:101474004212892B09F407C1F601808191810196FA
:1014840091838083AE01455F5F4FBE016F5F7F4FE5
:10149400C4010E946711F4C0652D70E0970140E01B
:1014A40050E0CE010B960E944212892B09F4EBC046
:1014B400D6018D919C91119701968D939C93AE01C9
:1014C400455F5F4FBE016F5F7F4FC4010E94CD1522
:1014D400D7C0652D70E0970140E050E0CE010B9637
:1014E4000E944212892B09F4CEC0F60180819181B9
:1014F400019691838083AE01455F5F4FBE016F5FAC
:101504007F4FC4010E943714BBC0652D70E0970162
:1015140040E050E0CE010B960E944212892B09F460
:10152400B2C0D601ED91FC911197CF0101968D9334
:101534009C9320811CC0970140E050E060EF70E074
:10154400CE010B960E944212892B09F49CC0F6012D
:10155400808191810196918380838B859C85892BE1
:1015640029F420E030E043EC53E084C028E7AE01E6
:10157400455F5F4FBE016F5F7F4FC4010E94E90D5D
:101584007FC0A501400F511F652D70E09701CE016A
:101594000B960E940000892B09F475C0D6018D9129
:1015A4009C91119701968D939C9373C0652D70E067
:1015B400A701CE010B960E940000892B09F463C099
:1015C400D601ED91FC911197CF0101968D939C93D7
:1015D4002081AE01455F5F4FBE016F5F7F4FC40145
:1015E4000E9400004DC0B0E85B124DC0F60180813E
:1015F4009181019691838083D701ED91FC9111979C
:10160400CF0102968D939C93808120C0B0E85B1239
:101614003AC0F60180819181019691838083D7013C
:10162400ED91FC911197CF0102968D939C9340818B
:10163400518120E030E01EC0B0E85B1224C0F60106
:10164400208131812F5F3F4F318320838B870DC0F1
:1016540085E28B87D6016D927C921A8219821E8252
:101664001D828FEF9FEF9C838B8321E030E0AE01DE
:10167400455F5F4FBE016F5F7F4FC4010E946A1BCD
:101684008A0D9B1D07C0F60180819181019691838B
:0C1694008083C5012E96EFE00C942A1E06
:1016A000EF92FF920F931F93CF93DF93CDB7DEB7E7
:1016B00068970FB6F894DEBF0FBECDBF988F8F8BA3
:1016C00088EE93E0A0E0B0E08D839E83AF83B8877F
:1016D0008F89988D843F914080F48BE089871A86AA
:1016E00019821A821B821C8284EF91E0A0E0B0E094
:1016F0008D839E83AF83B887B5C08F89988D883ED0
:101700009340A0F4198681E08A8784EF91E0A0E0FD
:10171000B0E089839A83AB83BC8384EF91E0A0E03F
:10172000B0E08D839E83AF83B8879CC08F89988DEE
:10173000803D974068F481E0898782E08A8788EE5F
:1017400093E0A0E0B0E089839A83AB83BC838AC036
:101750008F89988D883B9B4068F482E0898783E07D
:101760008A8780ED97E0A0E0B0E089839A83AB831D
:10177000BC8378C08F89988D803A9F4068F483E05D
:10178000898784E08A8788EB9BE0A0E0B0E08983CA
:101790009A83AB83BC8366C08F89988D88389341C8
:1017A00068F484E0898785E08A8780EA9FE0A0E08A
:1017B000B0E089839A83AB83BC8354C08F89988DB2
:1017C0008037974168F485E0898786E08A8788E8D2
:1017D00093E1A0E0B0E089839A83AB83BC8342C0ED
:1017E0008F89988D88359B4168F486E0898787E0EA
:1017F0008A8780E797E1A0E0B0E089839A83AB8392
:10180000BC8330C08F89988D80349F4168F487E015
:10181000898788E08A8788E59BE1A0E0B0E089833A
:101820009A83AB83BC831EC08F89988D8832934284
:1018300068F488E0898789E08A8780E49FE1A0E0F6
:10184000B0E089839A83AB83BC830CC089E089872D
:101850008AE08A8788E293E2A0E0B0E089839A83F5
:10186000AB83BC838985882F90E0880F991F865AA7
:101870009C4FFC0180819181CC01A0E0B0E08B877E
:101880009C87AD87BE878A85882F90E0880F991F37
:10189000865A9C4FFC01808191819C0140E050E080
:1018A0008B859C85AD85BE8579018A01E81AF90A88
:1018B0000A0B1B0BD801C7018F87988BA98BBA8B9A
:1018C0008F89988D9C0140E050E089819A81AB819D
:1018D000BC81281B390B4A0B5B0B84E690E0DC01D2
:1018E0000E94F41FDC01CB012D813E814F81588580
:1018F000BC01CD010E949C1CDA01C9018B8B9C8B21
:10190000AD8BBE8B2B893C894D895E898F859889EB
:10191000A989BA89BC01CD010E94731FDC01CB01EA
:1019200024E630E040E050E0BC01CD010E949C1C68
:10193000DA01C9019C018B859C85820F931F6896F3
:101940000FB6F894DEBF0FBECDBFDF91CF911F91D0
:081950000F91FF90EF90089544
:10195800EF92FF920F931F93CF93DF93CDB7DEB72C
:101968006C970FB6F894DEBF0FBECDBFF894809188
:10197800CD039091CE03A091CF03B091D00389837A
:101988009A83AB83BC838091D5039091D603A091B1
:10199800D703B091D8038D839E83AF83B887809196
:1019A8000804882F90E0A0E0B0E089879A87AB8789
:1019B800BC8778942091CD033091CE034091CF031A
:1019C8005091D0038091D9039091DA03A091DB0361
:1019D800B091DC03281739074A075B0721F480E038
:1019E80090E0DC01E3C08091D9039091DA03A091E3
:1019F800DB03B091DC0329813A814B815C81790159
:101A08008A01E81AF90A0A0B1B0BD801C7018D874E
:101A18009E87AF87B88B8091DD039091DE03A091FC
:101A2800DF03B091E0032D813E814F815885790114
:101A38008A01E81AF90A0A0B1B0BD801C701880F9B
:101A4800991FAA1FBB1F880F991FAA1FBB1F880FAA
:101A5800991FAA1FBB1F880F991FAA1FBB1F880F9A
:101A6800991FAA1FBB1F898B9A8BAB8BBC8B89854F
:101A78009A85AB85BC85880F991FAA1FBB1F880F45
:101A8800991FAA1FBB1F880F991FAA1FBB1F880F6A
:101A9800991FAA1FBB1F880F991FAA1FBB1F2FEFD3
:101AA80030E040E050E0BC01CD010E949C1CDA010E
:101AB800C9019C01AD0189899A89AB89BC89820FCA
:101AC800931FA41FB51F898B9A8BAB8BBC8B8091FE
:101AD8000D04882F90E02FEF30E08901081B190BC7
:101AE800C801880F991F82959295907F9827807FCB
:101AF80098272FEF30E0B9010E94151FCB01092E5E
:101B0800000CAA0BBB0B29893A894B895C8979019E
:101B18008A01E81AF90A0A0B1B0BD801C701898B3D
:101B28009A8BAB8BBC8B89899A89AB89BC892D85AB
:101B38003E854F855889BC01CD010E949C1CDA0165
:101B4800C9018D8B9E8BAF8BB88F80E097E8A3E996
:101B5800B3E02D893E894F89588DBC01CD010E9483
:101B68009C1CDA01C901898F9A8FAB8FBC8F8D813C
:101B78009E81AF81B8858093DD039093DE03A093A7
:101B8800DF03B093E00389819A81AB81BC818093A4
:101B9800D9039093DA03A093DB03B093DC03898520
:101BA80080930D04898D9A8DAB8DBC8DBC01CD01C0
:101BB8006C960FB6F894DEBF0FBECDBFDF91CF9104
:0A1BC8001F910F91FF90EF90089518
:101BD200AFE0B0E0EFEEFDE00C94D51D1C016B010F
:101BE2005A8349832B83FB01828193818480958070
:101BF20000811181A680B78097FD02C00D7F02C0CF
:101C020081E090E0E981FA814080518062807380B6
:101C12009801207133273D832C83740104FF08C08F
:101C2200411451046104710419F032E0E31AF1081D
:101C3200F801E870FF27FF83EE8303FF03C0F1E0A2
:101C4200EF1AF108F6010084F185E02D3197FF8744
:101C5200EE87EA0DFB1D10829C012E193F09398780
:101C62002887C801827099279B878A87EB818E2FEC
:101C7200EE0F990B9C01215431093D872C872E854B
:101C82003F852230310530F48C819D81892B09F00A
:101C920042C05CC0411451046104710461F18E853B
:101CA2009F8501979F878E87C2018F7099278A30FF
:101CB200910514F4C09602C0895A9F4FEC85FD85A8
:101CC2007A9748F49C012062215631092A31310564
:101CD20010F40E941420EE85FF85EA0DFB1D80831F
:101CE200F1E0EF1AF10884E07694679457944794F0
:101CF2008A95D1F7C4CF888599858E0D9F1D1816B8
:101D020019066CF21E141F040CF0BECFEA85FB8587
:101D1200EF2B29F6B9CFE981FA8180819181A281E5
:101D2200B381892B8A2B8B2B89F0EE85FF85EA0DF7
:101D3200FB1D31972B8120838E859F8502979F877C
:101D42008E87FC01EA0DFB1D80E38083EE81FF811B
:101D5200EF2B59F02E853F85215031093F872E8781
:101D6200F901EA0DFB1D80E28083F6014085518571
:101D7200415051092E853F85421B530BB9016A0D13
:101D82007B1D9401C1010E9449189C01F1018081CF
:101D9200918190FF06C0F601828193818217930799
:0C1DA2000CF4C9012F96E2E10C94271EFE
:101DAE00CF93DF930F92CDB7DEB719823AC08981F8
:101DBE00882F90E0880F991F9C01220F331F220F4E
:101DCE00331F820F931F86509D4FFC01108211828C
:101DDE00128213828981882F90E0880F991F9C01AF
:101DEE00220F331F220F331F820F931F82509D4FDE
:101DFE00FC01118210828981882F90E0880F991F33
:101E0E009C01220F331F220F331F820F931F8A5004
:101E1E009D4FFC01108211821282138289818F5F85
:101E2E0089838981853018F219821CC08981282FF7
:101E3E0030E0C901880F991F820F931F8F519C4F5D
:101E4E00FC0110828981282F30E0C901880F991F6B
:101E5E00820F931F8E519C4FFC011182108289813B
:101E6E008F5F89838981882309F3198225C089812F
:101E7E00882F90E0880F991F880F991F84559C4FCB
:101E8E00FC0110828981882F90E0880F991F880F9E
:101E9E00991F83559C4FFC0110828981882F90E0F9
:101EAE00880F991F880F991F82559C4FFC01118234
:101EBE00108289818F5F898389818230C0F280E0B0
:081ECE000F90DF91CF91089500
:101ED600CF93DF9300D000D00F92CDB7DEB7198233
:101EE60036C08981882F90E0880F991F9B838A834B
:101EF6008A819B810E94BD1B9D838C838C819D81E1
:101F060081159044A8F08981882F90E02981222F9D
:101F160030E0220F331F2E583C4FF90120813181CA
:101F2600880F991F865A9C4FFC01318320830CC071
:101F36008981882F90E0880F991F865A9C4F2C81A3
:101F46003D81FC013183208389818F5F898389816B
:101F56008B3038F2109271031092700386E190E094
:101F66000E94BD1B9D838C838C819D8180329E4403
:101F760030F48C819D819093F3038093F20388E182
:101F860090E00E94BD1B9D838C838C819D81883E41
:101F9600934030F48C819D819093F5038093F403F4
:101FA6008AE190E00E94631F882F90E09D838C83D6
:101FB6008C819D818A3F910518F48C8180930B0456
:101FC6008BE190E00E94631F882F90E09D838C83B5
:101FD6008C819D818A3F910518F48C8180930C0435
:101FE60000000F900F900F900F900F90DF91CF9100
:021FF60008954C
:101FF800CF93DF93CDB7DEB72D970FB6F894DEBF3A
:102008000FBECDBF84E590E0FC0180818093FD0385
:102018000E945A1682E00E94D91185E497E00E9436
:10202800D71786E299E00E94D71780E399E00E94CB
:10203800D7170E94D70E6AE070E08EED9FE10E94EC
:10204800F51060E089EE9FE10E94141680E090E0B0
:102058000E94E51B8FE00E94A51E80E00E94BC1E26
:1020680080E00E94BE1C0E946B0FCE010A960E945F
:10207800751E9091FC0381E089278823B1F18A8538
:102088009B85AC85BD85BC01CD010E941018DC0183
:10209800CB010297A105B10540F10E94BA1A9A83B3
:1020A800898389819A810E94500B9C838B838B81C1
:1020B8009C810E94E51B89819A810E9474139E83EA
:1020C8008D838D810E94BC1E0E94601D8F838F812D
:1020D800882F90E00E9483159987888788850E94B9
:1020E800A51ECE010A960E94751E0E94A104C1CFAA
:1020F800CF93DF9300D0CDB7DEB719820E94001FBF
:102108008A838A818823E1F18A810E942B19898335
:102118008981882F90E081709927892BA9F0809177
:10212800FA03813041F41092FA038091F703826038
:102138008093F70309C08091FA03823028F08091D8
:10214800FA0381508093FA038981882F90E0847084
:102158009927892BA9F08091FB03813041F41092D3
:10216800FB038091F70388608093F70309C080918F
:10217800FB03823028F08091FB0381508093FB039E
:102188008A810E94E71A982F8981892B89838981FE
:10219800882F90E080719927892B59F08091FA0354
:1021A800823038F01092FA038091F70381608093AF
:1021B800F7038981882F90E080729927892B59F03D
:1021C8008091FB03823038F01092FB038091F70373
:1021D80084608093F70300000F900F90DF91CF91F8
:0221E800089558
:1021EA00CF93DF9300D000D00F92CDB7DEB79B8399
:1021FA008A837D836C83198258C08981882F90E0F5
:10220A00880F991F9C01220F331F220F331F820F41
:10221A00931F86509D4FFC0180819181A281B381D9
:10222A00892B8A2B8B2BF1F58981682F70E08C81A1
:10223A009D819C0140E050E0CB01880F991FBC01B1
:10224A00660F771F660F771F860F971F86509D4F61
:10225A00FC0120833183428353838981882F90E054
:10226A00880F991F9C01220F331F220F331F820FE1
:10227A00931F82509D4F2A813B81FC013183208329
:10228A008981882F90E0880F991F9C01220F331FA4
:10229A00220F331F820F931F8A509D4F0E94751E73
:1022AA00898108C089818F5F89838981853008F493
:1022BA00A4CF8FEF0F900F900F900F900F90DF9198
:0422CA00CF91089513
:1022CE00A2E0B0E0EDE6F1E10C94D51D3C016B010E
:1022DE00FB0122813381A480B580808191819A8314
:1022EE00898386809780FA012080318042805380D6
:1022FE00B201A10157FE07C044275527BA01421962
:10230E0053096409750937FD03C08D7F9A8389834C
:10231E00950157FC05C0898182FD02C083FF02C072
:10232E0021503109CE0101967C010AE010E0C60170
:10233E000E940F1357FC03C0298122FF0AC0019788
:10234E00F401E80FF91F57FC02C02BE209C02DE281
:10235E0007C023FF06C00197F401E80FF91F20E222
:10236E00208309811A81F60140855185415051091A
:10237E00481B590BB401680F791F9501C3010E94C8
:10238E0049189C01F3018081918190FF06C0F601EE
:10239E0082819381821793070CF4C9012296E2E1A0
:0423AE000C94271E46
:1023B200CF93DF930F92CDB7DEB7898389818823CC
:1023C20061F480EC90E021EC30E040E0F9014083E0
:1023D200FC01408380E090E050C0F89489818093B2
:1023E2000204109203041092E7031092E60388E2BB
:1023F20093E09093ED038093EC038091EC03909132
:10240200ED039093EB038093EA031092E903109299
:10241200E80382E091E09093F1038093F0038091CE
:10242200F0039091F1039093EF038093EE031092E7
:10243200040480EC90E021EC30E040E0F9014083BC
:10244200FC01408384EC90E023E3FC01208385ECD3
:1024520090E0FC01108280EC90E020E4FC012083FB
:1024620082EC90E026E0FC01208381EC90E028EDF4
:10247200FC012083789480E090E00F90DF91CF916F
:022482000895BB
:10248400CF93DF93DC01F90168387105F1F05CF456
:102494006138710561F164387105A1F16038710525
:1024A40009F051C02FC0603C710509F441C0603F80
:1024B4007105F1F1603A710509F045C0C081D1811F
:1024C400CE0102969183808325C0C081D181CE0143
:1024D400029691838083452B39F04881042E000CA9
:1024E400550B660B770B1CC0488150E029C0C08196
:1024F400D181CE01049691838083488159816A8178
:102504007B810EC0C081D181CE01029691838083EC
:10251400452BA1F048815981052E000C660B770BE1
:102524004D935D936D937C93139781E090E00DC080
:10253400C081D181CE0102969183808348815981E3
:1025440060E070E0EDCF80E090E0DF91CF910895FE
:102554001F920F920FB60F9211242F933F938F93D4
:102564009F93EF93FF93CF93DF930F92CDB7DEB793
:102574008091E6039091E70301969093E70380939B
:10258400E6038997E0F081E0809303048091E603F9
:102594009091E703C29798F087E0809301048091BB
:1025A400E6039091E70301979093E7038093E60392
:1025B40086EC90E0FC018081898300001FC080913B
:1025C400EC039091ED039C012F5F3F4F3093ED039B
:1025D4002093EC0326EC30E0F9012081FC012083F8
:1025E4008091EC039091ED038955934039F030F0DC
:1025F40088E293E09093ED038093EC0300000F9046
:10260400DF91CF91FF91EF919F918F913F912F9106
:0A2614000F900FBE0F901F90189555
:10261E00A0E0B0E0E5E1F3E10C94D71DDC01280168
:10262E001696AD90BC901797F70180819181129606
:10263E00ED91FC9113971896CD91DC9119972197F6
:10264E00F7FF02C0E1E0F0E0CA0DDB1D1882690160
:10265E00A1E0B0E08F01021B130B4C01F2E08F22C0
:10266E009924052C000C66087708CE018A199B095F
:10267E00CA15DB0519F1411551056105710589F082
:10268E00CB01BA01A30192010E949C1CCA01A62F84
:10269E00B72F605D6A9341E0C41AD108A901BC014D
:1026AE00E4CF98012C0D3D1D121613064CF31C148D
:1026BE001D0434F48114910419F702C080E090E0F7
:1026CE00AB2B31F4F701208131812F7E31832083B2
:0A26DE00CDB7DEB7E0E10C94291E31
:1026E800CF93DF9300D000D000D0CDB7DEB79E8364
:1026F8008D8319821A821B821C828091F203909129
:10270800F3032D813E818217930708F042C0809120
:10271800F2039091F3032D813E81A901481B590BC7
:10272800CA01CC01A0E0B0E089839A83AB83BC8363
:102738008091F4039091F5039C0140E050E0898179
:102748009A81AB81BC81BC01CD010E94731FDC0161
:10275800CB0128EE33E040E050E0BC01CD010E94FF
:102768009C1CDA01C90189839A83AB83BC83898164
:102778009A81AB81BC818F3F9105A105B10549F0D4
:1027880040F08FEF90E0A0E0B0E089839A83AB83BC
:10279800BC8389819A8126960FB6F894DEBF0FBE56
:0827A800CDBFDF91CF91089530
:1027B0001F920F920FB60F9211242F933F934F93B6
:1027C0005F936F937F938F939F93AF93BF93EF9399
:1027D000FF93CF93DF93CDB7DEB78091C90390917C
:1027E000CA03A091CB03B091CC030197A109B10911
:1027F0008093C9039093CA03A093CB03B093CC03F7
:10280000809105048823F9F481E080930504809188
:1028100006049FEF980F90930604882329F486E01E
:10282000809306040E940A20809107049FEF980F6E
:1028300090930704882319F48EE3809307040E9481
:102840007C10109205040000DF91CF91FF91EF9171
:10285000BF91AF919F918F917F916F915F914F91B8
:0E2860003F912F910F900FBE0F901F90189573
:10286E00A2E0B0E0EDE3F4E10C94D91D4C016B0154
:10287E00FB012281338164807580808191819A83EE
:10288E008983A680B78037FD03C08D7F9A838983A5
:10289E00FA014081518162817381CE0101967C01E2
:1028AE0008E010E09301C6010E940F13298124FF56
:1028BE0006C00197F501E80FF91F20E32083298157
:1028CE0023FF06C00197F501E80FF91F20E22083D0
:1028DE0009811A81F6014085518541505109481BE5
:1028EE00590BB501680F791F9301C4010E94491855
:1028FE009C01F4018081918190FF06C0F6018281D6
:10290E009381821793070CF4C9012296EEE00C9482
:02291E002B1E6E
:10292000CF93DF93CDB7DEB780910304882391F076
:102930009091040481E08927882361F0809102044A
:10294000823029F486EC90E023E1FC01208381E0D1
:10295000809304048091E8039091E903892B91F11D
:1029600080EC90E0FC018081882F90E080729927B4
:10297000892B41F126EC30E08091EE039091EF033A
:10298000AC014F5F5F4F5093EF034093EE03FC01A8
:102990008081F90180838091EE039091EF03855F40
:1029A000924039F030F082E091E09093EF03809311
:1029B000EE038091E8039091E90301979093E90376
:0C29C0008093E8030000DF91CF910895A0
:1029CC00CF93DF9300D0CDB7DEB789836A8389813B
:1029DC00883099F48091FE0381508093FE0380919E
:1029EC00FE038830A8F58091FE03882F90E08C546C
:1029FC009C4FFC01108281E02FC08A81823049F407
:102A0C008981882F90E00E943D1F892B69F481E019
:102A1C0023C08A81833041F48981882F90E0C0974C
:102A2C000A9710F081E018C08091FE03883088F47A
:102A3C008091FE03882F90E08C549C4F2981FC01DF
:102A4C0020838091FE038F5F8093FE0381E004C09E
:102A5C0000001092FE0380E00F900F90DF91CF9159
:022A6C000895CB
:102A6E000F931F93CF93DF93DB01109719F48FEF22
:102A7E009FEF3DC02D913C91119730FF25C01696CA
:102A8E004D915C91179714962D913C911597421785
:102A9E00530778F41296ED91FC911397808312965A
:102AAE002D913C9113972F5F3F4F13963C932E938E
:102ABE00129716962D913C9117972F5F3F4F1796B1
:102ACE003C932E93169713C01C96ED91FC911D9777
:102ADE00309769F2EB01092F182F0995892B39F6DA
:102AEE008E819F8101969F838E83812F902FDF9100
:082AFE00CF911F910F91089583
:102B0600CF93DF9300D000D00F92CDB7DEB79D8371
:102B16008C8390910C0480910B04292F281B822F03
:102B26008B838B81482F50E02C813D81429FC001D1
:102B3600439F900D529F900D1124969587959695DB
:102B460087959C01ABE7B4E10E94831F9C013695F3
:102B5600279580910B04882F90E0820F931F9A830C
:102B6600898380910C04282F30E089819A81281767
:102B7600390730F480910C04882F90E09A8389837A
:102B860089819A810F900F900F900F900F90DF918F
:042B9600CF9108953E
:102B9A00A2E0B0E0E3EDF5E10C94D91D5C016B0114
:102BAA00FB012281338184809580808191819A837F
:102BBA0089836680778037FD03C08D7F9A838983F6
:102BCA00FA014081518162817381CE0101967C01B3
:102BDA000AE010E09401C6010E940F1309811A81CC
:102BEA00F6014085518541505109481B590BB301E3
:102BFA00680F791F9401C5010E9449189C01F501CB
:102C0A008081918190FF06C0F601828193818217AB
:0E2C1A0093070CF4C9012296EEE00C942B1ED9
:102C2800CF93DF9300D000D0CDB7DEB79B838A83E4
:102C38006C83198230C08981282F30E0C901880F40
:102C4800991F820F931F8E519C4FFC0180819181A7
:102C5800892BF1F48981282F30E0C901880F991F49
:102C6800820F931F8F519C4F2C81FC0120838981F7
:102C7800282F30E0C901880F991F820F931F8E51AA
:102C88009C4F2A813B81FC0131832083898107C0C5
:102C980089818F5F89838981882369F28FEF0F90FB
:0C2CA8000F900F900F90DF91CF910895D6
:102CB400CF93DF93CDB7DEB7F89481E690E020E8B8
:102CC400FC01208381E690E0FC01108285E290E023
:102CD400FC01108284E290E02FEBFC01208388E267
:102CE40090E022E0FC01208387E290E02CE7FC01E5
:102CF40020838BE290E02FE0FC0120838AE290E0C5
:102D040022EFFC01208389E690E028E0FC01208387
:102D14008DE390E022E0FC0120838BE390E0FC0152
:102D240010820E9461190E94791C0E94D31E0E9485
:0C2D3400001D78940000DF91CF910895FD
:102D40001F920F920FB60F9211248F939F93AF9300
:102D5000BF93EF93FF93CF93DF93CDB7DEB780910F
:102D6000D1039091D203A091D303B091D403809367
:102D7000D5039093D603A093D703B093D80386E4EA
:102D800090E0FC018081809308048091CD039091B4
:102D9000CE03A091CF03B091D0030196A11DB11D28
:102DA0008093CD039093CE03A093CF03B093D00331
:102DB0000000DF91CF91FF91EF91BF91AF919F9173
:0C2DC0008F910F900FBE0F901F90189580
:102DCC00CF93DF93CDB7DEB78FE892E00E94D71791
:102DDC008EEB92E00E94D7178DEE92E00E94D717EF
:102DEC008CE193E00E94D7178BE493E00E94D717F5
:102DFC008AE793E00E94D71789EA93E00E94D717DD
:102E0C0088ED93E00E94D71787E094E00E94D717D3
:102E1C0086E394E00E94D71785E694E00E94D717CA
:102E2C0084E994E00E94D71783EC94E00E94D717B2
:102E3C008FE292E00E94D7170000DF91CF910895A6
:102E4C00CF93DF9300D0CDB7DEB78A838091F003A8
:102E5C009091F1039C012F5F3F4F3093F10320932E
:102E6C00F0032A81FC0120838091F0039091F103FF
:102E7C00855F924039F030F082E091E09093F1035D
:102E8C008093F0038FE590E0FC0180818983F894B6
:102E9C008091E8039091E90301969093E903809364
:102EAC00E8038FE590E02981FC01208300000F905E
:082EBC000F90DF91CF91089502
:102EC400CF93DF9300D0CDB7DEB78091EA03909122
:102ED400EB039C012F5F3F4F3093EB032093EA03F6
:102EE400FC01808189838091EA039091EB038955E9
:102EF400934039F030F088E293E09093EB038093B1
:102F0400EA038FE590E0FC0180818A83F894809144
:102F1400E6039091E70301979093E7038093E60318
:102F24008FE590E02A81FC01208389810F900F9026
:062F3400DF91CF9108952A
:102F3A00A0E1B0E0E3EAF7E10C94E11DFB01BA017C
:102F4A00AE014F5F5F4F7A0140E1D7011D924A956A
:102F5A00E9F742E051E05A8349839C838B83F7FF68
:102F6A0009C08FE490E090930101809300018FEFF4
:102F7A009FEF14C0A9018C013197FE83ED83C7012D
:102F8A000E948D1E4F8158852D813E81421753071D
:102F9A0008F49A01F801E20FF31F10826096E6E046
:042FAA000C94331E32
:102FAE00CF93DF93CDB7DEB729970FB6F894DEBF78
:102FBE000FBECDBF99878887888599859B838A8325
:102FCE008A819B81FC0184918C838C81898313C0BF
:102FDE0089810E94B91D8885998501969987888770
:102FEE00888599859E838D838D819E81FC01849138
:102FFE008F838F8189838981882351F780E090E0C8
:10300E0029960FB6F894DEBF0FBECDBFDF91CF91DC
:02301E00089513
:10302000CF93DF9300D000D0CDB7DEB769837A832A
:103030008B839C830E94DF1C9B01AC0189819A8158
:10304000AB81BC81821B930BA40BB50B880F991F1E
:10305000AA1FBB1F880F991FAA1FBB1F880F991F8C
:10306000AA1FBB1F880F991FAA1FBB1F24E630E0B1
:1030700040E050E0BC01CD010E949C1CDA01C90176
:10308000BC01CD010F900F900F900F90DF91CF9169
:023090000895A1
:10309200A0E0B0E0EFE4F8E10C94DB1D6C015B0111
:1030A2007A01E901480181E08822992400FD03C0E8
:1030B2004217530750F0A701B501C6010E949C1D9B
:1030C200EC16FD0610F0C70117C08E010E191F097C
:1030D2000115110541F0B60180E290E00E9437151A
:1030E20001501109F5CF8114910429F4A701B5010A
:1030F200C6010E949C1DCE01CDB7DEB7ECE00C9458
:023102002D1E80
:10310400AC01FA0190814F5F5F4F9032D1F3292FC8
:10311400092E000C330B295031092530310588F371
:103124009B3209F540E050E0319602C040E050E0A7
:1031340080E090E06AE02191022E000C330B2053D2
:1031440031092A30310548F4689FD001699FB00DD8
:103154001124CD01821B930BEECF452B49F491959D
:103164008195910908959D3209F741E050E0DCCF43
:023174000895BC
:10317600CF93DF93CDB7DEB760970FB6F894DEBF77
:103186000FBECDBF6D877E878F87988B88898F937B
:103196008F858F938E858F938D858F9383EA93E0AA
:1031A600892F8F9383EA93E08F93CE0101969F93A5
:1031B6008F930E94511F8DB79EB708960FB6F8944D
:1031C600DEBF0FBECDBFCE0101960E94201D6096C8
:1031D6000FB6F894DEBF0FBECDBFDF91CF91089535
:1031E600CF93DF9300D0CDB7DEB79A8389838091E2
:1031F600E6039091E703892B09F10E946217282FB5
:1032060089819A81FC012083809102048130C9F072
:10321600809104048823A9F08091E6039091E70346
:10322600829778F4109204041092030480910204A9
:10323600823039F481E10E94B91D03C088E090E82C
:1032460002C080E090E00F900F90DF91CF9108953B
:10325600CF93DF9300D0CDB7DEB78A8319828A81F8
:10326600882F90E084709927892B69F08091F80364
:10327600882339F481E08093F8038FE38093FA037F
:1032860002C081E089838A81882F90E08270992725
:10329600892B71F08091F903882339F481E08093BA
:1032A600F9038FE38093FB0303C0898184608983DC
:0C32B60089810F900F90DF91CF91089557
:1032C200CF93DF93CDB7DEB784E690E0FC011082A6
:1032D20086E890E02FEF3FE3FC013183208380E812
:1032E20090E022E8FC01208381E890E02AE1FC01E1
:1032F200208382E890E0FC01108284E890E0FC01E7
:103302001182108288E890E0FC01118210828AE822
:1033120090E0FC01118210828FE690E0FC011082A5
:083322000000DF91CF91089536
:10332A00A2E8B0E0EBE9F9E10C94DB1D5C014A018B
:10333A007A836983C12CD12CE981FA81808188231F
:10334A00E9F07401860120E830E0AE014D5F5F4F7D
:10335A00BE016F5F7F4FC5010E9452098C0D9D1DF2
:10336A008C159D054CF48FE490E0909301018093B5
:10337A0000018FEF9FEF03C06C01DECFC601CE576D
:08338A00DF4FECE00C942D1E56
:10339200CF93DF9300D00F92CDB7DEB789837B83C3
:1033A2006A8389818C30F0F48A819B8181159044F3
:1033B200D8F48981882F90E0880F991F9C018A8117
:1033C2009B81BC01C9010E94561C8981882F90E013
:1033D200880F991F865A9C4F2A813B81FC013183B9
:1033E200208303C0000001C000000F900F900F90D7
:0633F200DF91CF91089568
:1033F800CF93DF93CDB7DEB728970FB6F894DEBF2B
:103408000FBECDBF98878F8388858F938F818F93C9
:1034180080EA93E0892F8F9380EA93E08F93CE011F
:1034280001969F938F930E94511F0F900F900F90BA
:103438000F900F900F90CE0101960E94201D2896A4
:103448000FB6F894DEBF0FBECDBFDF91CF910895C0
:10345800CF93DF93CDB7DEB728970FB6F894DEBFCA
:103468000FBECDBF98878F8388858F938F818F9369
:1034780087EA93E0892F8F9387EA93E08F93CE01B1
:1034880001969F938F930E94511F0F900F900F905A
:103498000F900F900F90CE0101960E94201D289644
:1034A8000FB6F894DEBF0FBECDBFDF91CF91089560
:1034B800CF93DF9300D000D000D0CDB7DEB79E8386
:1034C8008D830E94DF1CDC01CB0189839A83AB8347
:1034D800BC83000089819A81AB81BC81BC01CD018C
:1034E8000E9410189B01AC018D819E81CC01A0E047
:1034F800B0E0281739074A075B0760F300002696F3
:103508000FB6F894DEBF0FBECDBFDF91CF910895FF
:10351800DC01ED91FC91119780818A3221F080E0E5
:1035280090E03AE00EC03196ED93FC93DB01ED910B
:10353800FC911197CF0102968D939C938081918184
:103548000895ED91FC911197208120532A3068F459
:10355800389FA001399F500D1124CA01820F911D77
:0C35680031961196FC93EE93ECCF089581
:10357400CF93DF93CDB7DEB780910A04882391F00F
:103584000E94AC0CDC01CB01209109042695222F6A
:1035940030E040E050E0BC01CD010E949C1CDA0107
:1035A400C90110C00E94AC0CDC01CB0120910904BC
:1035B400222F30E040E050E0BC01CD010E949C1C71
:0A35C400DA01C901DF91CF910895EB
:1035CE00CF93DF9300D0CDB7DEB78A831982809177
:1035DE00F803882359F08A81882F90E08470992708
:1035EE00892B21F41092F80380E189838091F903ED
:1035FE00882361F08A81882F90E082709927892B29
:10360E0029F41092F90389818062898389810F9050
:08361E000F90DF91CF91089598
:103626001F920F920FB60F9211248F939F93AF9311
:10363600BF93CF93DF93CDB7DEB78091D10390913F
:10364600D203A091D303B091D4030196A11DB11D5D
:103656008093D1039093D203A093D303B093D40362
:103666000000DF91CF91BF91AF919F918F910F9005
:083676000FBE0F901F90189584
:10367E001F920F920FB60F9211242F933F934F93D9
:10368E005F936F937F938F939F93AF93BF93EF93BC
:10369E00FF93CF93DF93CDB7DEB70E949014000057
:1036AE00DF91CF91FF91EF91BF91AF919F918F914C
:1036BE007F916F915F914F913F912F910F900FBE20
:0636CE000F901F901895FB
:1036D400A0E0B0E0E0E7FBE10C94DD1D7C01FB0120
:1036E400EA01C901A280B380C480D5800081118120
:1036F400209711F4CCEBD3E0009719F4CE010E948B
:10370400A01FB7FC04C0A816B90608F4C5019601A9
:10371400AC01BE01C7010E944918CDB7DEB7EAE08B
:043724000C942F1EB4
:10372800CF93DF9300D000D0CDB7DEB79B838A83D9
:103738006C838A819B810E942520982F8C81981701
:1037480081F08FE590E0FC0180818983F8948A817B
:103758009B816C810E94AE1F8FE590E02981FC015E
:10376800208300000F900F900F900F90DF91CF9162
:023778000895B2
:10377A00CF93DF9300D000D0CDB7DEB79C838B8385
:10378A008B819C810E94631F882F90E0982F882745
:10379A009A8389838B819C8101960E94631F882F5B
:1037AA0090E029813A81822B932B9A83898389819C
:1037BA009A810F900F900F900F90DF91CF910895FB
:1037CA00CF93DF9300D0CDB7DEB79A8389838981FF
:1037DA009A818115904420F08FEF9FE39A83898321
:1037EA0088E890E0FC012081318189819A8128173B
:1037FA00390739F088E890E029813A81FC01318360
:0E380A00208300000F900F90DF91CF91089562
:103818001F920F920FB60F9211242F933F938F93FD
:103828009F93EF93FF93CF93DF93CDB7DEB780ECF1
:1038380090E020EC30E0F90120812F7DFC0120830D
:103848000000DF91CF91FF91EF919F918F913F9170
:0C3858002F910F900FBE0F901F9018953D
:103864001F920F920FB60F9211248F939F93AF93D1
:10387400BF93CF93DF93CDB7DEB78FEF9FEFDC011C
:103884008093C9039093CA03A093CB03B093CC0352
:103894000000DF91CF91BF91AF919F918F910F90D5
:0838A4000FBE0F901F90189554
:1038AC00CF93DF9300D000D0CDB7DEB79A83898356
:1038BC007C836B838B819C81892F9927282F89810D
:1038CC009A81622F0E94941B2B8189819A81019687
:1038DC00622F0E94941B00000F900F900F900F907E
:0638EC00DF91CF91089569
:1038F200CF93DF93CDB7DEB784E490E023EAFC01F7
:10390200208385E490E021E0FC01208386E490E0BE
:10391200FC01108287E490E0FC01108288E490E0D0
:10392200FC0110828EE690E021E0FC012083000081
:06393200DF91CF91089522
:10393800A1E21A2EAA1BBB1BFD010DC0AA1FBB1FAB
:10394800EE1FFF1FA217B307E407F50720F0A21B1D
:10395800B30BE40BF50B661F771F881F991F1A948A
:1039680069F760957095809590959B01AC01BD01B4
:04397800CF010895DE
:10397C00CF93DF930F92CDB7DEB7898389818823EC
:10398C0051F085E290E025E230E0F90120812160E0
:10399C00FC01208309C085E290E025E230E0F901CA
:1039AC0020812E7FFC01208300000F90DF91CF91AE
:0239BC0008956C
:1039BE00CF93DF9300D000D0CDB7DEB7F8948091CF
:1039CE00C9039091CA03A091CB03B091CC03898314
:1039DE009A83AB83BC83789489819A81AB81BC81B5
:1039EE00BC01CD010F900F900F900F90DF91CF91F2
:0239FE0008952A
:103A0000CF93DF93CDB7DEB78CE790E020E6FC01E3
:103A100020838AE790E023E8FC0120838BE790E095
:103A2000FC0110828EE790E021E0FC0120838AE710
:103A300090E023ECFC0120830000DF91CF910895FA
:103A4000CF93DF9300D0CDB7DEB79A8389830BC0C5
:103A500089819A81FC0180810E94B91D89819A81A6
:103A600001969A83898389819A81FC0180818823C8
:103A700079F780E090E00F900F90DF91CF9108955B
:103A8000CF93DF93EC0190E0E92FF0E0EE0FFF1F02
:103A9000E657FC4F8081811102C081810EC0A88150
:103AA000B9812C91821305C091811196B983A883A5
:103AB00001C09F5F9B3040F3892FDF91CF91089524
:103AC000CF93DF930F92CDB7DEB700008AE790E087
:103AD000FC018081882F90E080719927892BB1F3B8
:103AE00089E790E0FC01808189838AE790E023ECFC
:0E3AF000FC01208389810F90DF91CF91089512
:103AFE00CF93DF9300D0CDB7DEB79A8389838981C8
:103B0E009A810E94FC198AEF98E00E94D71789814A
:103B1E009A810E942C1A80E299E00E94D717000029
:0A3B2E000F900F90DF91CF910895E2
:103B3800A0E0B0E0E2EAFDE10C94DF1D6C01EB01CE
:103B48008A017B01E40EF51ECE15DF0541F089914F
:103B5800B601082E000C990B0E943715F5CFC80145
:0A3B6800CDB7DEB7E8E00C94311E83
:103B7200CF93DF930F92CDB7DEB789838091E803AD
:103B82009091E903843F914020F489810E94261795
:103B920005C081E090E00E945C1AF0CF80E090E0E6
:083BA2000F90DF91CF9108950F
:103BAA002F923F924F925F926F927F928F929F9243
:103BBA00AF92BF92CF92DF92EF92FF920F931F9331
:103BCA00CF93DF93CDB7DEB7CA1BDB0B0FB6F894E2
:083BDA00DEBF0FBECDBF099450
:103BE200CF93DF93CDB7DEB78AE790E023ECFC01F9
:103BF200208300008AE790E0FC018081882F90E01A
:103C020080719927892BB1F389E790E0FC018081CB
:063C1200DF91CF9108953F
:103C1800CF93DF93CDB7DEB71092E7031092E60398
:103C280088E293E09093ED038093EC038091EC039A
:103C38009091ED039093EB038093EA0380E090E08A
:063C4800DF91CF91089509
:103C4E002A88398848885F846E847D848C849B841E
:103C5E00AA84B984C884DF80EE80FD800C811B812C
:103C6E00AA81B981CE0FD11D0FB6F894DEBF0FBE5B
:063C7E00CDBFED01089529
:103C8400CF93DF930F92CDB7DEB7898389818C30D0
:103C940018F080E090E00AC08981882F90E0880FB6
:103CA400991F865A9C4FFC01808191810F90DF916E
:043CB400CF9108950F
:103CB800CF93DF930F92CDB7DEB7898389818D309B
:103CC80019F089818A3041F481E090E00E945C1A01
:103CD8000E940C1E81E001C080E00F90DF91CF911F
:023CE80008953D
:103CEA00CF93DF9300D0CDB7DEB79A8389830E9442
:103CFA00DF1CDC01CB0129813A81F90180839183A0
:103D0A00A283B38300000F900F90DF91CF910895A3
:103D1A00A2E0B0E0E3E9FEE10C94E31D8C015A83D2
:103D2A004983AE014F5F5F4F0E949519F8012081C8
:103D3A0024FF02C08FEF9FEF2296E4E00C94351E19
:103D4A00CF93DF930F92CDB7DEB7898387E490E0F4
:103D5A00FC0190818981981729F087E490E02981F4
:0E3D6A00FC01208300000F90DF91CF9108959F
:103D7800CF93DF930F92CDB7DEB7898388E490E0C5
:103D8800FC0190818981981729F088E490E02981C5
:0E3D9800FC01208300000F90DF91CF91089571
:103DA600CF93DF93CDB7DEB7A89584E590E0FC010D
:103DB600108280E690E020E1FC01208380E690E01E
:0E3DC60020ECFC0120830000DF91CF910895D6
:103DD400CF93DF93CDB7DEB789E698E00E94D7177B
:103DE4008091F603882F90E00E942C1A83E898E0D3
:0C3DF4000E94D7170000DF91CF910895C6
:103E0000CF93DF93CDB7DEB789E290E0FC018081EC
:103E10008095282F247086E290E0FC0180818095B7
:0A3E20008270822BDF91CF9108958C
:103E2A0097FB072E16F4009407D077FD09D00E945D
:103E3A00291F07FC05D03EF4909581959F4F089560
:083E4A00709561957F4F08950A
:103E5200AA1BBB1B51E107C0AA1FBB1FA617B707AE
:103E620010F0A61BB70B881F991F5A95A9F78095CA
:083E72009095BC01CD010895FB
:103E7A009C01205331092A30310558F0806281565D
:103E8A00910931E020E0069708F030E0832F922F65
:083E9A00089581E090E0089515
:103EA200A0E0B0E0E7E5FFE10C94E51DAE01475F5D
:103EB2005F4F6F8178858D819E810E942D20E2E087
:043EC2000C94371E07
:103EC600CF93DF9300D0CDB7DEB79A8389838981FC
:103ED6009A810E9425200F900F90DF91CF9108952F
:103EE600DB018F939F930E94F41FBF91AF91A29F16
:103EF600800D911DA39F900DB29F900D11240895E2
:103F0600A29FB001B39FC001A39F700D811D112414
:0E3F1600911DB29F700D811D1124911D089503
:103F2400CF93DF930F92CDB7DEB7898389818093D6
:0C3F3400F70300000F90DF91CF9108957B
:103F4000FC01AF014F5F5F4F2081222311F0FA0186
:0C3F5000F8CF9F01281B390BC901089510
:103F5C00262FF999FECF1FBA92BD81BD20BD0FB699
:0C3F6C00F894FA9AF99A0FBE0196089595
:103F7800CF93DF93CDB7DEB788E890E0FC0180816E
:083F88009181DF91CF910895B2
:103F9000CF93DF93CDB7DEB787E490E0FC0180815B
:063FA000DF91CF910895AE
:103FA600CF93DF93CDB7DEB788E490E0FC01808144
:063FB600DF91CF91089598
:103FBC00CF93DF930F92CDB7DEB7898380E00F905C
:063FCC00DF91CF91089582
:103FD200CF93DF930F92CDB7DEB7898380E00F9046
:063FE200DF91CF9108956C
:103FE8000E94831FA59F900DB49F900DA49F800DE4
:063FF800911D1124089543
:103FFE00EC010E943F200E943E20CE010E944020F4
:06400E00CE010E943C20DF
:10401400CF93DF93CDB7DEB70E9490140000DF91F9
:04402400CF9108959B
:104028009C01215631092A31310510F48F759927E1
:024038000895E9
:10403A009C01215431092A31310508F4806208951E
:10404A00F999FECF92BD81BDF89A992780B5089556
:0E405A009A01AB016FEF7FE70E949D1708955A
:0C406800EE0FFF1F0590F491E02D09946D
:044074000C94321C5A
:044078000E94C700DB
:02407C000895A5
:02407E000895A3
:024080000895A1
:1040820014059808F811581BC422882C5834543D42
:08409200803EAC3FAC3F000092
:10409A0068076C094C836A9074A07AC000806888AB
:0640AA0000846C8200811D
:0C40B000256400256C7500307825780030
:0740BC00286E756C6C2900F1
:0640C300286E696C290063
:0440C900FFFFFFFFF7
:0240CD00881356
:0240CF0064008B
:0140D10006E8
:0140D2003EAF
:0140D30004E8
:0140D40001EA
:0140D50014D6
:0140D600C821
:00000001FF
